:1000000010C01FC01EC01DC01CC01BC01AC019C01C
:1000100018C017C016C015C014C013C012C011C03C
:1000200010C011241FBECFE5D2E0DEBFCDBF20E05F
:10003000A0E6B0E001C01D92A43CB207E1F7DED516
:10004000ECC5DECF8FEF8ABB1BBA87BB18BA84BB67
:1000500015BA81BB12BA0895DF92EF92FF920F9307
:100060001F93CF93DF9344E650E098E0A2E9B0E01D
:10007000E0E6F0E0EE24E39472E064E030E180E258
:1000800010E46894DD24D7F800EC95BBF5B22C9110
:100090002F2925BB208128BBC7E1D1E02197F1F7AB
:1000A00000C0000015BAEBBA12962C91129725BB2E
:1000B000228128BBC7E1D1E02197F1F700C0000001
:1000C0007BBB14962C91149725BB248128BBC7E1D8
:1000D000D1E02197F1F700C000006BBB16962C9180
:1000E000169725BB268128BBC7E1D1E02197F1F700
:1000F00000C000009BBB18962C91189725BB20854B
:1001000028BBC7E1D1E02197F1F700C000003BBB5D
:100110001A962C911A9725BB228528BBC7E1D1E0FE
:100120002197F1F700C000008BBB1C962C911C9707
:1001300025BB248528BBC7E1D1E02197F1F700C09A
:1001400000001BBB1E962C911E9725BB268528BB45
:10015000C7E1D1E02197F1F700C00000DBBA50966B
:100160002C91509725BB208928BBC7E1D1E021976E
:10017000F1F700C000001BBAE8BA52962C915297D2
:1001800025BBF8B222892F2928BBC7E1D1E02197EE
:10019000F1F700C0000078BB54962C91549725BB12
:1001A000F8B224892F2928BBC7E1D1E02197F1F7C4
:1001B00000C0000068BB56962C91569725BBF8B23C
:1001C00026892F2928BBC7E1D1E02197F1F700C08C
:1001D000000098BB58962C91589725BBF8B2208DFB
:1001E0002F2928BBC7E1D1E02197F1F700C000001B
:1001F00038BB5A962C915A9725BBF8B2228D2F29DD
:1002000028BBC7E1D1E02197F1F700C0000088BB0F
:100210005C962C915C9725BBF8B2248D2F2928BBC6
:10022000C7E1D1E02197F1F700C0000018BA02BB86
:100230005E962C915E9725BB268D28BBC7E1D1E049
:100240002197F1F700C0000012BA85BBF5B2909675
:100250002C9190972F2925BB20A128BBC7E1D1E085
:100260002197F1F700C0000015BBF5B292962C91D2
:1002700092972F2925BB22A128BBC7E1D1E0219766
:10028000F1F700C00000D5BAF5B294962C9194977E
:100290002F2925BB24A128BBC7E1D1E02197F1F785
:1002A00000C0000015BAE2BA96962C91969725BB2D
:1002B00026A128BBC7E1D1E02197F1F700C00000DB
:1002C00072BB98962C91989725BB20A528BBC7E1B7
:1002D000D1E02197F1F700C0000082BB9A962C91E3
:1002E0009A9725BB22A528BBC7E1D1E02197F1F75A
:1002F00000C0000032BB9C962C919C9725BB24A586
:1003000028BBC7E1D1E02197F1F700C0000092BB04
:100310009E962C919E9725BB26A528BBC7E1D1E0D0
:100320002197F1F700C0000062BBD0962C91D097C6
:1003300025BB20A928BBC7E1D1E02197F1F700C078
:10034000000012BA4150510909F09FCEDF91CF91C0
:100350001F910F91FF90EF90DF90089540E050E0E3
:1003600070E060E015C08D919C9111978F738D9313
:100370009D9380819181887F819391932F5F3F4FDF
:100380002530310581F7465F5F4F4233510549F013
:10039000DA01A05ABF4FFA01EE56FF4F272F362F32
:1003A000E2CF089540E050E070E060E015C08D912C
:1003B0009C911197806C8D939D9380819181876032
:1003C000819391932F5F3F4F2530310581F7465F31
:1003D0005F4F4233510549F0DA01A05ABF4FFA018D
:1003E000EE56FF4F272F362FE2CF08952F923F92E0
:1003F0004F925F926F927F928F929F92AF92BF9235
:10040000CF92DF92EF92FF920F931F93CF93DF93E0
:100410006C01181619060CF0E8C0412C512CC1E0F3
:10042000D0E00F2EF5E02F2EF02D312C6894AA2469
:10043000A6F8B12C6894662467F8712C41E0C41AC0
:10044000D1088CDF242D352D0BC01D921D92C19338
:10045000D1930197D1F7265F3F4F2233310549F001
:10046000D901A05ABF4FF901EE56FF4F822D932DAF
:10047000ECCF10927F0010927E00EEDD6FDF00E681
:1004800010E00F2EF2E9EF2EF0E0FF2EF02D0F2EF0
:10049000F2E98F2EF0E09F2EF02DD701F80124E035
:1004A00030E03CC0009731F4B182A08211961C92DA
:1004B0001E9214C08130910539F4738262821396C2
:1004C0001C921E92129717C08230910539F4158242
:1004D00014821596DC93CE93149717C08330910540
:1004E00051F41782168242E050E017965C934E93C7
:1004F00016970196D7CF8430910539F4118610866E
:1005000019963C932E93189704C001968530910557
:1005100049F63A961A96E815F90519F0842D952DA5
:10052000C1CF9ADD1BDF842D952D40EC50E027E0F4
:1005300030E0FC01E05AFF4F55834483FC01EE5646
:10054000FF4F358324830A968233910591F784DD2A
:1005500005DF24E030E040C0009739F4F801118253
:100560001082F7013183208316C08130910549F450
:10057000F8011382128242E050E0F7015383428374
:1005800015C08230910539F4F80115821482F70103
:10059000D583C48315C08330910541F4F801778277
:1005A0006682F701178216820196D6CF84309105B4
:1005B00039F4F801B186A086F7011186108604C0CF
:1005C00001968530910541F6065F1F4FFAE0EF0E68
:1005D000F11C0815190519F0842D952DBDCF3CDDB2
:1005E000BDDEC114D10409F029CFDF91CF911F9155
:1005F0000F91FF90EF90DF90CF90BF90AF909F90C2
:100600008F907F906F905F904F903F902F900895C4
:100610004F925F926F927F928F929F92AF92BF9212
:10062000CF92DF92EF92FF920F931F93CF93DF93BE
:100630004C01181619060CF0BDC0C2E9D0E06624C2
:100640006394712C462C572C0F2EF3E0CF2ED12C17
:10065000F02D00E610E00F2EF0ECEF2EF12CF02D37
:100660000F2EF7E0AF2EB12CF02D81E0881A910803
:10067000488E598EF1DCD98EC88EF801F18EE08E4D
:100680006AA27BA26A8E7B8E6E867F866E8A7F8A46
:10069000E3DCD9A2C8A2D98AC88ADDA2CCA2DD86B1
:1006A000CC86DBA2CAA2DB8ECA8EDF8ACE8ADF8628
:1006B000CE86F801F1A2E0A2F18AE08AF5A2E4A2D6
:1006C000F586E486F3A2E2A2F38EE28EF78AE68A4A
:1006D000F786E686C1DCF801F18EE08EB98EA88E31
:1006E00015A614A6158E148E15821482158A148AE6
:1006F0006CA67DA66C8E7D8E6C827D826C8A7D8AD6
:10070000ABDCF801F3A2E2A2F38EE28EF18AE08A7A
:10071000F1A2E0A2F786E686F78AE68AF5A2E4A2CD
:10072000F586E486BBA2AAA2BB8EAA8EB98AA88A45
:10073000B9A2A8A2BF86AE86BF8AAE8ABDA2ACA26D
:10074000BD86AC86F7A2E6A2F7A6E6A6F58EE48EF5
:10075000F5A6E4A6F38AE28AF3A6E2A6F78EE68E71
:10076000F782E682F58AE48AF582E482F386E286FD
:10077000F382E282DFA2CEA2DFA6CEA6DD8ECC8EF1
:10078000DDA6CCA6DB8ACA8ADBA6CAA6DF8ECE8E01
:10079000DF82CE82DD8ACC8ADD82CC82DB86CA868D
:1007A000DB82CA8259DCFEDD57DCD8DD811491047E
:1007B00009F05BCFDF91CF911F910F91FF90EF90E8
:1007C000DF90CF90BF90AF909F908F907F906F9071
:1007D0005F904F9008952F923F924F925F926F9249
:1007E0007F928F929F92AF92BF92CF92DF92EF92C1
:1007F000FF920F931F93CF93DF9300D0CDB7DEB757
:100800004C01181619060CF0A9C0A12CB12C00E45B
:1008100010E00F2EF0E6CF2EF0E0DF2EF02D0F2EA1
:10082000F0EC4F2EF02D512C242C352C0F2EF2E90C
:10083000EF2EF0E0FF2EF02D0F2EF7E06F2EF02DB3
:10084000712C69827A8221E0821A91088A2D9B2D6F
:10085000FC01E05AFF4F11830083FC01EE56FF4F6D
:1008600025E030E0318320830A968233910581F7B9
:10087000F601208231822981F70120833A81318378
:10088000EBDB6CDD8A2D9B2DFC01E05AFF4F1383BF
:100890000283FC01EE56FF4F25E030E033832283D4
:1008A0000A968233910581F7F60142825382F7015D
:1008B00062827382D1DB52DD8A2D9B2DFC01E05ACE
:1008C000FF4F15830483FC01EE56FF4F25E030E017
:1008D000358324830A968233910581F7F601448299
:1008E0005582F70164827582B7DB38DD8A2D9B2D36
:1008F000FC01E05AFF4F17830683FC01EE56FF4FC1
:1009000025E030E0378326830A968233910581F70C
:10091000F60146825782F701668277829DDB1EDDF3
:100920008A2D9B2DFC01E05AFF4F11870087FC01A7
:10093000EE56FF4F25E030E0318720870A9682335C
:10094000910581F7F60140865186F7016086718630
:1009500083DB04DD8114910409F075CF0F900F90B3
:10096000DF91CF911F910F91FF90EF90DF90CF908B
:10097000BF90AF909F908F907F906F905F904F90BF
:100980003F902F9008952F923F924F925F926F92D7
:100990007F928F929F92AF92BF92CF92DF92EF920F
:1009A000FF920F931F93CF93DF9300D000D0CDB76A
:1009B000DEB74C01181619060CF009C1AA24A3943D
:1009C000B12C00E610E0702ED8016B2E0F2EF2E94C
:1009D000CF2EF0E0DF2EF02D5C2C4D2CE02EFB2EE8
:1009E000B1E08B1A9108BADC20E030E050E040E042
:1009F0000DC01D921D92A192B19201968530910574
:100A0000C1F7265F3F4F2233310549F0D901A05A83
:100A1000BF4FF901EE56FF4F852F942FEACF10926A
:100A20007F0010927E0018DB99DC80E090E02AE6DF
:100A300030E06894222421F8312C60E870E040E432
:100A400050E03AC0009731F45183408311961C92D4
:100A50001E9214C08130910539F4738762871B960A
:100A60001C921E921A9714C08230910539F4158A8F
:100A7000148A5596BC92AE92549715C08330910556
:100A800039F4178E168E5F963C922E925E970BC0AD
:100A90008430910541F411A610A604E010E0999667
:100AA0001C930E93989732961296E217F30751F61D
:100AB00001968530910521F0D601E72DF62DC2CFA4
:100AC000CBDA4CDCE4E7F0E0A6EAB0E04EE750E039
:100AD00020EC30E087E090E0219331938D939D935B
:100AE000E417F507C9F7B8DA39DC40E050E080E0F8
:100AF00090E0212C312C54C0009769F4EB81FC81EB
:100B00001182108204E010E011961C930E932130A4
:100B1000310539F503C02130310549F4FB01138259
:100B2000128202E010E0E981FA81138302838230AD
:100B3000910549F4EB81FC81158A148A5596BC9283
:100B4000AE9254971BC08330910559F400E810E031
:100B5000EB81FC81178F068F5F961C921E925E9729
:100B60000DC08430910551F400E410E0EB81FC816C
:100B700011A700A799961C921E9298972F5F3F4F3E
:100B8000EB81FC813296FC83EB8312962530310594
:100B900009F0B2CF0196465F5F4F8530910589F02D
:100BA000A52DB42DEE2DFF2D222D332DBA01605A27
:100BB0007F4F8A010E561F4FFC83EB831A830983F4
:100BC0009BCF4ADACBDB8114910409F009CF0F9057
:100BD0000F900F900F90DF91CF911F910F91FF9089
:100BE000EF90DF90CF90BF90AF909F908F907F90CD
:100BF0006F905F904F903F902F90089523DAAEDB77
:100C000083E090E0F3DB83E090E002DD83E090E0BE
:0E0C1000BADE83E090E0DFDDF3CFF894FFCF93
:00000001FF
